:020000040000FA
:060000000A128A11EE2F26
:100EC600013402340434083410342034403480347D
:100ED6007E088A007F0882000A128A116B270A128E
:100EE6008A118000840A04087D0603190034FF0A6B
:100EF6000319FE0A6F2F0130831203138800033093
:100F0600F2008A30F1005530F000F00B882FF10B1B
:100F1600882FF20B882F8F2F02308312031388003D
:100F26000330F2008A30F1005530F000F00B992FB3
:100F3600F10B992FF20B992FA02F04308312031374
:100F46008800080083160317880189018316031396
:100F56008501FF308600870188018113F601F501BE
:100F6600831203130608F3007308F70077080319C2
:100F7600BD2FBE2FBF2FB32F2130F300F30BC12F90
:100F860083120313061CC82FC92FE52FF601F60A94
:100F96000A128A117E270A128A11E52F7708031989
:100FA600D52FD62FD72FE52F2130F300F30BD92FCE
:100FB60083120313861CE02FE12FE52F0130F30087
:100FC6007308F5077608031DE92FEA2FD12FB32FF3
:100FD6000A128A11002883132830FD000730FE000C
:100FE6006330FF00203084000A128A116F270A122C
:0A0FF6008A1183010A128A11A52F47
:04400E00D420FF3F7C
:00000001FF
