:020000040000FA
:060000000A128A11FC2F18
:100E96008312031387018501013088000330F200B5
:100EA6008A30F1005530F000F00B572FF10B572F19
:100EB600F20B572F5E2F0230831203138800033084
:100EC600F2008A30F1005530F000F00B682FF10B7C
:100ED600682FF20B682F6F2F0430831203138800DC
:100EE60008008316031788018901831603138501F9
:100EF600FF3086008701880183120313850187016D
:100F06008801831603138113F601F801F80A78089D
:100F1600F3007308F7002130F300F30B902F8312D0
:100F260003130608F3007308F80077189B2F9C2F0D
:100F36008A2F781C9F2FA02FF32FF601F60A0A128C
:100F46008A114B270A128A11013083120313850076
:100F560001308700F32F7808F3007308F70021307B
:100F6600F300F30BB42F831203130608F300730880
:100F7600F800F718BF2FC02FC82FF81CC32FC42F97
:100F8600C82F0508F300730785007719CB2FCC2FE0
:100F9600D42F781DCF2FD02FD42F0708F300730737
:100FA600870005080319D82FD92FDE2F0708031D40
:100FB600DD2FDE2FF32FF601070805020318E42FB5
:100FC600E52FE72F8815F32F050807020318EC2FE6
:100FD600ED2FEF2F0816F32F1830F300730888044F
:100FE6007608031DF72FF82FAE2F8A2F0A128A11C3
:0A0FF600002883010A128A11742FEB
:04400E00D420FF3F7C
:00000001FF
