:020000040000FA
:060000000A128A11EE2F26
:100E5800003401340234043408341034203440346B
:100E680080347E088A007F0882000A128A1135279A
:100E78000A128A118000840A04087D0603190034C6
:100E8800FF0A0319FE0A392F013083120313880061
:100E98000330F2008A30F1005530F000F00B522F89
:100EA800F10B522FF20B522F592F023083120313DA
:100EB80088000330F2008A30F1005530F000F00B62
:100EC800632FF10B632FF20B632F6A2F0430831209
:100ED8000313880008008316031788018901831605
:100EE80003138501FF3086008701880183120313ED
:100EF800850187018801831603138113F401F50125
:100F0800F601F801F80A7808F3007308F7002130B1
:100F1800F300F30B8D2F831203130608F3007308F5
:100F2800F8007718982F992F872F781C9C2F9D2FC2
:100F3800E52FF401F40A0A128A1148270A128A11C5
:100F4800E52F7808F3007308F7002130F300F30B5E
:100F5800AB2F831203130608F3007308F800F71881
:100F6800B62FB72FBF2FF81CBA2FBB2FBF2F0130BA
:100F7800F3007308F5077719C22FC32FCB2F781DFD
:100F8800C62FC72FCB2F0130F3007308F60775085B
:100F9800203E84008313000885007608203E8400E4
:100FA80000088700803005060319DB2FDC2FE22FAD
:100FB80080300706031DE12FE22FE52FF401F5012C
:100FC800F6017408031DE92FEA2FA52F872F0A12AF
:100FD8008A11002883132930FD000730FE002C30C9
:100FE800FF00203084000A128A1139270A128A1158
:080FF80083010A128A116F2F18
:04400E00D420FF3F7C
:00000001FF
