:020000040000FA
:060000000A128A11EE2F26
:100D5A00F30083120313091573080A128A11642710
:100D6A000A128A118312031309140D30F200F20BCE
:100D7A00BC2E8312031309100800F4008312031314
:100D8A00091174080A128A1164270A128A11831235
:100D9A00031309140630F3003030F200F20BD32E9D
:100DAA00F30BD32E000083120313091008008316D5
:100DBA000313880189010330831603178800890108
:100DCA000A128A111F270A128A11F501F50A01303F
:100DDA000A128A11FC260A128A1161300A128A1131
:100DEA00AD260A128A11EA2E0A128A110028F80080
:100DFA000E2F75087F3E0A128A11C2260A128A111C
:100E0A001E2F7508BF3E0A128A11C2260A128A11BB
:100E1A001E2F7808F600F7017708003A0319162FF3
:100E2A001E2F7608013A0319FE2E033A0319062FDC
:100E3A001E2F080000300A128A1164270A128A112A
:100E4A001A30F600F830F500F50B292FF60B292F8A
:100E5A00000030300A128A11C2260A128A1107309B
:100E6A00F6007D30F500F50B382FF60B382F3030B1
:100E7A000A128A11C2260A128A110F30F600473066
:100E8A00F500F50B462FF60B462F4B2F30300A1282
:100E9A008A11C2260A128A1138300A128A11C22607
:100EAA000A128A110C300A128A11C2260A128A11EF
:100EBA0006300A128A11C2260A128A110800F100A3
:100ECA007118682F6C2F8312031308146F2F831263
:100EDA00031308107108F00001300310F00CFF3EF4
:100EEA00031D722F70187A2F7E2F83120313881412
:100EFA00812F8312031388107108F0000230031047
:100F0A00F00CFF3E031D842F70188C2F902F831234
:100F1A0003130815932F8312031308117108F000A5
:100F2A0003300310F00CFF3E031D962F70189E2FFE
:100F3A00A22F831203138815A52F83120313881176
:100F4A007108F00004300310F00CFF3E031DA82FB7
:100F5A007018B02FB42F831203130816B72F8312F9
:100F6A00031308127108F00005300310F00CFF3E5D
:100F7A00031DBA2F7018C22FC62F831203138816A7
:100F8A00C92F8312031388127108F0000630031068
:100F9A00F00CFF3E031DCC2F7018D42FD82F8312CC
:100FAA0003130817DB2F8312031308137108F000C9
:100FBA0007300310F00CFF3E031DDE2F7018E62FDA
:100FCA00EA2F831203138817ED2F83120313881352
:100FDA00080083120313A001A101A201A301A40125
:100FEA00A501A601A701A801A901AA01AB018301D4
:060FFA000A128A11DC2E30
:04400E00D420FF3F7C
:00000001FF
