:020000040000FA
:060000000A128A110E280D
:10000800FE00030EF2000408F3000A08F4000A12C6
:100018008A15F12C0A128A11112883120313D701A9
:10002800D801D901DA01DB01DC01DD01DE01DF01E4
:10003800E001E101E20183010A128A15742F83129B
:1000480003132D088039B2003208B7002D08B2001A
:100058003207B3003308BD00AC1F332834283528D5
:100068003D143D08031939283A2849283D0A031D3B
:100078003E283F2847280030AD000030AC00003053
:10008800AB000030AA00AC1751280030AD0000309A
:10009800AC000030AB000030AA0031088039B20053
:1000A8003208B7063108B2003207B3003308BC0083
:1000B800B01F5F28602861283C143C080319652894
:1000C800662875283C0A031D6A286B2873280030A7
:1000D800B1000030B0000030AF000030AE00B01703
:1000E8007D280030B1000030B0000030AF00003093
:1000F800AE003C0803198128822887283D08031D83
:100108008628872890280030AD000030AC000030E9
:10011800AB000030AA00832B2A08B2003208F50091
:1001280030080A128A15B4250A128A117608831231
:100138000313C3007508C2004208B200B301B4013A
:10014800B5013508BB003408BA003308B9003208D5
:10015800B8004308B200B301B401B5013508C100C5
:100168003408C0003308BF003208BE002B08B200B4
:100178003208F5002F080A128A15B4250A128A11C6
:10018800760883120313C3007508C2004208B20040
:10019800B301B401B5013208B807330803110318D5
:1001A800013E0319D828B907340803110318013E82
:1001B8000319DF28BA07350803110318013E03198C
:1001C800E628BB074308B200B301B401B501320801
:1001D800BE07330803110318013E0319F428BF07AB
:1001E800340803110318013E0319FB28C00735081A
:1001F80003110318013E03190229C1072C08B20094
:100208003208F5002E080A128A15B4250A128A1136
:10021800760883120313C3007508C2004208B200AF
:10022800B301B401B5013208B80733080311031844
:10023800013E03192029B907340803110318013EA8
:1002480003192729BA07350803110318013E0319B2
:100258002E29BB074308B200B301B401B501320827
:10026800BE07330803110318013E03193C29BF07D1
:10027800340803110318013E03194329C007350840
:1002880003110318013E03194A29C1070830B200B7
:100298000310B80DB90DBA0DBB0DB20B4C292B08C4
:1002A800B2003208F5002E080A128A15B4250A127F
:1002B8008A11760883120313C3007508C200420826
:1002C800B2004308B300B401B5013208B8073308D7
:1002D80003110318013E03197229B90734080311E1
:1002E8000318013E03197929BA07350803110318C1
:1002F800013E03198029BB072A08B2003208F5001D
:100308002F080A128A15B4250A128A117608831250
:100318000313C3007508C2004208B2004308B300C3
:10032800B401B5013208B807330803110318013EB8
:1003380003199F29B907340803110318013E03194B
:10034800A629BA07350803110318013E0319AD2978
:10035800BB070830B2000310B80DB90DBA0DBB0DBC
:10036800B20BAF292A08B2003208F5002E080A128B
:100378008A15B4250A128A11760883120313C3005A
:100388007508C2004208B2004308B300B401B501C1
:100398003208B807330803110318013E0319D52999
:1003A800B907340803110318013E0319DC29BA07F9
:1003B800350803110318013E0319E329BB072B086D
:1003C800B2003208F50030080A128A15B4250A125C
:1003D8008A11760883120313C3007508C200420805
:1003E800B2004308B300B401B5013208BE073308B0
:1003F80003110318013E0319022ABF073408031129
:100408000318013E0319092AC00735080311031808
:10041800013E0319102AC1072C08B2003208F50062
:100428002F080A128A15B4250A128A11760883122F
:100438000313C3007508C2004208B2004308B300A2
:10044800B401B5013208BE07330803110318013E91
:1004580003192F2ABF07340803110318013E031993
:10046800362AC007350803110318013E03193D2A2F
:10047800C1072C08B2003208F50030080A128A15A4
:10048800B4250A128A11760883120313C30075086B
:10049800C2004208B2004308B300B401B5010830F5
:1004A8000310B20DB30DB40DB50DFF3E031D542A54
:1004B8003208BE07330803110318013E0319652AE1
:1004C800BF07340803110318013E03196C2AC0073B
:1004D800350803110318013E0319732AC1073808A8
:1004E800B2003908B3003A08B4003B08B500183028
:1004F8000310B50CB40CB30CB20CFF3E031D7C2AE0
:100508003208BE07330803110318013E03198D2A68
:10051800BF07340803110318013E0319942AC007C2
:10052800350803110318013E03199B2AC107083037
:10053800B2000310B80DB90DBA0DBB0DB20B9D2A50
:100548003D083C07B200B301B30D3208823EC20039
:1005580033080318013EFF3EC300CF2A0130B20022
:100568000310BE0DBF0DC00DC10DB20BB42ABB1FC9
:10057800BE2ABF2AC02A3E140130B2000310B80DAB
:10058800B90DBA0DBB0DB20BC22AFF30C207031852
:10059800C30AFF30C307C01FD22AD32AB22ABC011C
:1005A800BB1FD72AD82AF42AFF303805B200FF30FB
:1005B8003905B300FF303A05B4007F303B05B5007C
:1005C80035083404330432040319EB2AEC2AEF2AE1
:1005D800BC01BC0AF42A3E1CF22AF32AF42AEC2AAB
:1005E8003C080319F82AF92A2A2B0130BE070030E3
:1005F80003180130BF07003003180130C00700306E
:1006080003180130C107411C0A2B0B2B2A2B3E086B
:10061800B2003F08B3004008B4004108B5000130FB
:10062800B600350DB50CB40CB30CB20CB60B152BCB
:100638003508C1003408C0003308BF003208BE00C6
:100648000130C2070318C30A0030C3074308803AC1
:10065800FF0080307F02031D332BFF304202031C52
:10066800362B372B422B7F3083120313C100803087
:10067800C0000030BF000030BE00772B8312031388
:100688004308803AFF0080307F02031D4D2B013064
:1006980042020318502B512B5D2B00308312031399
:1006A800C1000030C0000030BF000030BE00B701FC
:1006B800772B831203134208B2003208BD00FF30C3
:1006C800BE05FF30BF057F30C0050030C1053D1CA9
:1006D8006E2B6F2B702BC0173D08B2000310320C25
:1006E800B3003308C1003708B2003208C10441081A
:1006F800AD004008AC003F08AB003E08AA00080067
:100708008312031323088039A8002808F50023085A
:10071800A8002807A9002908F700A21F942B952BE9
:10072800962B7714770803199A2B9B2BAB2B770AF8
:10073800031D9F2BA02BA82B0030A3000030A20084
:100748000030A1000030A000A217A301B32B003095
:10075800A3000030A2000030A1000030A00027084C
:100768008039A8002808F600760875060319BD2BFD
:10077800BE2BBF2B75172708A8002807A900290832
:10078800F600A61FC82BC92BCA2B761476080319A6
:10079800CE2BCF2BDF2B760A031DD32BD42BDC2BB0
:1007A8000030A7000030A6000030A5000030A400EB
:1007B800A617A701E72B0030A7000030A6000030DD
:1007C800A5000030A400770876020318EC2BED2B67
:1007D800312C751FF02BF12BF52B8030A800280841
:1007E800F5067708A8002808F8007608A800280861
:1007F800F7007808A8002808F6002008A8002808AC
:10080800F8002408A8002808A0007808A8002808EC
:10081800A4002108A8002808F8002508A80028082E
:10082800A1007808A8002808A5002208A800280820
:10083800F8002608A8002808A2007808A8002808B8
:10084800A6002308A8002808F8002708A8002808F8
:10085800A3007808A8002808A700F8017608A800CF
:10086800A9012908AB0077082802AA00031CAB03DA
:100878002B08803AFF0080307F02031D452C1A3078
:100888002A02031C482C492C8A2C831203132308A0
:10089800220421042004031D522C542C0130552C11
:1008A8000030A8002808F8000030A3000030A2009B
:1008B8000030A1000030A0007608A8002808F70042
:1008C800902C781C682C692C742C780883120313DC
:1008D800A8000310280C0138A9002908F800762C74
:1008E8000310F80C83120313201C7B2C7C2C7D2C0A
:1008F800F8170130A800230DA30CA20CA10CA00C22
:10090800A80B7F2C0130A8002808F7077608770283
:10091800031C8F2C902C652C751B932C942CE32C8A
:100928007708031D982C992CA42C003083120313EC
:10093800A3000030A2000030A1000030A000132E58
:10094800831203132408A007250803110318013E86
:100958000319AF2CA107260803110318013E031938
:10096800B62CA207270803110318013E0319BD2C52
:10097800A307231CC02CC12C992D781CC42CC52C72
:10098800CE2C7808A8000310280C0138A9002908E3
:10099800F800D02C0310F80C201CD32CD42CD52C08
:1009A800F8170130A800230DA30CA20CA10CA00C71
:1009B800A80BD72C0130A8002808F707992D831217
:1009C80003132308803AFF002708803A7F02031D9B
:1009D800F72C26082202031DF72C25082102031DE7
:1009E800F72C240820020318FA2CFB2C532DFF3077
:1009F800A800FF30A900FF30AA00FF30AB00240890
:100A0800AC002508AD002608AE002708AF00200876
:100A1800AC022108031C210F122D132DAD02220850
:100A2800031C220F182D192DAE022308031C230FB7
:100A38001E2D1F2DAF022C08A8072D0803182D0FF7
:100A4800262D272DA9072E0803182E0F2C2D2D2D06
:100A5800AA072F0803182F0AAB072B08A3002A0898
:100A6800A2002908A1002808A0008030A8002808B2
:100A7800F506F809F80A7808031D432D442D612D61
:100A88000130A007003003180130A1070030031817
:100A98000130A207003003180130A307612D240894
:100AA800A0022508031C250FA1022608031C260FF7
:100AB800A2022708031C270FA302230822042104EB
:100AC8002004031D682D692D952D7808031D6D2DB3
:100AD8006E2D952D0030A3000030A2000030A1003B
:100AE8000030A000132E0130A8000310A00DA10DA6
:100AF800A20DA30DA80B792DF81F832D842D852D0C
:100B08002014781C882D892D8C2D0314F80D8E2D1A
:100B18000310F80D77080319922D932D952D0130A8
:100B2800F702A21F982D992D772DF601F81F9D2DFC
:100B38009E2DAC2D78087F390319A32DA42DA72D40
:100B4800F601F60AAC2D201CAA2DAB2DAC2DA42D38
:100B580076080319B02DB12DE52D0130A00700301E
:100B680003180130A107003003180130A207003034
:100B780003180130A307231CC22DC32DE52D20081F
:100B8800A8002108A9002208AA002308AB00013008
:100B9800AC002B0DAB0CAA0CA90CA80CAC0BCD2DE2
:100BA8002B08A3002A08A2002908A1002808A000F1
:100BB800770A0319E02DE12DE52D0130A80028085A
:100BC800F707770A0319E92DEA2DEF2D7708031D9A
:100BD800EE2DEF2DFD2D0030A3000030A2000030D7
:100BE800A1000030A0007708031DFB2DFC2DFD2D72
:100BF800F501771C002E012E032EA217072E7F3039
:100C0800A8002808A2057708A8000310280CA90046
:100C18002908A300F51F112E122E132EA317080062
:100C280083120313C8003C30AD009B30AC00A530E4
:100C3800AB00E330AA004808C400C501C601C701DB
:100C48004708F8004608F7004508F6004408F5008C
:100C580001300A128A1140270A128A117808831271
:100C68000313B1007708B0007608AF007508AE002E
:100C78000A128A1123200A128A11831203132D08DB
:100C8800D2002C08D1002B08D0002A08CF00520827
:100C9800F8005108F7005008F6004F08F5000A124E
:100CA8008A156E260A128A11750883120313C40066
:100CB8004408CE004E08303EC4004408C9002E3017
:100CC800C4004408CA004E08C400C501C601C701D3
:100CD8004708F8004608F7004508F6004408F500FC
:100CE80001300A128A1140270A128A1178088312E1
:100CF8000313B3007708B2007608B1007508B00096
:100D08005208B7005108B6005008B5004F08B400A3
:100D18000A128A156B250A128A11831203133308E3
:100D2800D2003208D1003108D0003008CF0041305D
:100D3800AD002030AC000030AB000030AA005208F3
:100D4800B1005108B0005008AF004F08AE000A12B9
:100D58008A1123200A128A11831203132D08D20044
:100D68002C08D1002B08D0002A08CF005208F80020
:100D78005108F7005008F6004F08F5000A128A15C6
:100D88006E260A128A11750883120313C4004408D8
:100D9800CE004E08303EC4004408CB004E08C400C4
:100DA800C501C601C7014708F8004608F70045080D
:100DB800F6004408F50001300A128A1140270A1289
:100DC8008A11780883120313B3007708B2007608F3
:100DD800B1007508B0005208B7005108B6005008B5
:100DE800B5004F08B4000A128A156B250A128A1139
:100DF800831203133308D2003208D1003108D0001F
:100E08003008CF004130AD002030AC000030AB00DE
:100E18000030AA005208B1005108B0005008AF00D5
:100E28004F08AE000A128A1123200A128A1183126F
:100E380003132D08D2002C08D1002B08D0002A0853
:100E4800CF005208F8005108F7005008F6004F0884
:100E5800F5000A128A156E260A128A11750883127D
:100E68000313C4004408CE004E08303EC4004408B2
:100E7800CC00CD014930080083120313A4002408D4
:100E88000319472F482F5C2FF81F4B2F4C2F5C2F2F
:100E98007509A6007609A7007709A8007809A900AE
:100EA800A60A0319A70A0319A80A0319A90A642F8D
:100EB8007808A9007708A8007608A7007508A60092
:100EC8007808770476047504031D6B2F6C2F752F33
:100ED8000030F8000030F7000030F6000030F50070
:100EE800FB2F9630A0002008A500872F0130A00016
:100EF8002008A50701300310A90CA80CA70CA60C04
:100F0800FF3E031D7F2FFE302905031D8C2F8D2FDB
:100F18007A2FA92F0130A0002008A5070130A607C5
:100F2800003003180130A707003003180130A80764
:100F3800003003180130A90701300310A90CA80CD0
:100F4800A70CA60CFF3E031DA12FFF302905031D8A
:100F5800AE2FAF2F8E2FBB2F0130A5020130A0007E
:100F68000310A60DA70DA80DA90DA00BB42FA81B43
:100F7800BE2FBF2FC52F023025020318C42FC52F3F
:100F8800B02F2518C82FC92FD12FFF30A605FF3045
:100F9800A7057F30A805FF30A9050310A50C250873
:100FA800A000A101A201A30118300310A00DA10DFA
:100FB800A20DA30DFF3E031DD92F2008A60421086A
:100FC800A7042208A8042308A90424080319ED2F5C
:100FD800EE2FF32FF81FF12FF22FF32FA91729085F
:100FE800F8002808F7002708F6002608F50008008A
:10100000FF1B0A2883137F1883170008840A03191B
:10101000FF0A080008308A000408840A82070034A6
:10102000533431343A34203420342034533432347D
:101030003A34203420342034533433343A340034B6
:0610400056342034003498
:1019C80000300A128A1551250A128A1501300A12A6
:1019D8008A1551250A128A1508000A128A15112536
:1019E8000A128A1574088A0073088400720E83002C
:1019F800FE0E7E0E0900831203131F083F3940387C
:101A08009F008B170B17831603130C179F139F1236
:101A18001F12831203131F140800831203130C1FD1
:101A2800162D172D232D1E08F0001F0CF100710C28
:101A38000F39573E84007008831380000C13080088
:101A4800F80083120313091578080A128A15EA2682
:101A58000A128A158312031309140D30F700F70BC5
:101A6800332D8312031309100800F60083120313A1
:101A78009F183F2D402D4E2D7608F500F50DF50DDC
:101A88001F087506C33975069F004A2D000083128A
:101A980003139F147608573E080083120313A0000F
:101AA800091120080A128A15EA260A128A158312D1
:101AB800031309140630F8003030F700F70B622DD5
:101AC800F80B622D00008312031309100800803000
:101AD80083120313B3063708A3003608A20035089B
:101AE800A1003408A0003308A7003208A600310876
:101AF800A5003008A4000A128A1184230A128A1544
:101B0800831203132308B3002208B2002108B1008E
:101B18002008B000080083120313A400A32D210895
:101B28007F3E0A128A1551250A128A15B32D2108FB
:101B3800BF3E0A128A1551250A128A15B32D2408A8
:101B4800A200A3012308003A0319AB2DB32D2208E4
:101B5800013A0319932D033A03199B2DB32D08005D
:101B680083120313A400A001A1017508F700F8016E
:101B78007708A2007808A300241CC32DC42DCA2D01
:101B88002208A0070318A10A2308A107013003109F
:101B9800A20DA30DFF3E031DCB2D0310A40C24089A
:101BA800031DD72DD82DC02D2108F6002008F500DB
:101BB800080083120313A501A601062E2508200795
:101BC800A3002108A2000318A20AA51FEC2DA20356
:101BD800831203132208A4002408FF0023088400AA
:101BE8000A128A1500200A128A150A128A15242553
:101BF8000A128A15013083120313A5070318A60ACF
:101C08000030A60725082007A3002108A200031812
:101C1800A20AA51F102EA203831203132208A400F0
:101C28002408FF00230884000A128A1500200A12DB
:101C38008A15003A031D212E222EE22D08000030BD
:101C48000A128A15EA260A128A151A308312031311
:101C5800A200F730A100A10B2F2EA20B2F2E342E9D
:101C680030300A128A1551250A128A150730831254
:101C78000313A2007C30A100A10B402EA20B402E22
:101C8800000030300A128A1551250A128A150F30C1
:101C980083120313A2004730A100A10B512EA20BFF
:101CA800512E30300A128A1551250A128A153830F9
:101CB8000A128A1551250A128A150C300A128A1539
:101CC80051250A128A1506300A128A1551250A1258
:101CD8008A1508000310770D780D83120313A000EE
:101CE8002008A6002608031D7A2E7B2E842E00309D
:101CF800F8000030F7000030F6000030F500E92E5B
:101D08007508A0007608A1007708A2007808A3004B
:101D18001F300310A30CA20CA10CA00CFF3E031D46
:101D28008D2E2008A4002408A500F717FF30F5051C
:101D3800FF30F605FF30F7050030F8059630A602AB
:101D4800A61FA72EA82EC22E2608803A973E031853
:101D5800AE2EAF2EB02E7B2E01300310F80CF70CF0
:101D6800F60CF50CFF3E031DB12E0130A000200833
:101D7800A607031DC02EC12EB02ED92E2030260254
:101D8800031CC72EC82ED42E7B2E0130A0000310B2
:101D9800F50DF60DF70DF80DA00BCB2E0130A602B0
:101DA8002608031DD82ED92EC92E25080319DD2E85
:101DB800DE2EE92EF509F609F709F809F50A0319DF
:101DC800F60A0319F70A0319F80A0800F600761844
:101DD800EE2EF22E831203130814F52E831203132A
:101DE80008107608F50001300310F50CFF3E031DBE
:101DF800F82E7518002F042F831203138814072F49
:101E08008312031388107608F50002300310F50CCE
:101E1800FF3E031D0A2F7518122F162F8312031366
:101E28000815192F8312031308117608F5000330DB
:101E38000310F50CFF3E031D1C2F7518242F282FA7
:101E48008312031388152B2F831203138811760826
:101E5800F50004300310F50CFF3E031D2E2F7518F6
:101E6800362F3A2F8312031308163D2F83120313BC
:101E780008127608F50005300310F50CFF3E031D27
:101E8800402F7518482F4C2F8312031388164F2F95
:101E98008312031388127608F50006300310F50C38
:101EA800FF3E031D522F75185A2F5E2F83120313FE
:101EB8000817612F8312031308137608F5000730FB
:101EC8000310F50CFF3E031D642F75186C2F702F3F
:101ED800831203138817732F8312031388130800C0
:101EE80083160313880189010330831603178800BA
:101EF80089010A128A1523260A128A150A128A15D6
:101F0800FF240A128A1500300A128A1539250A1286
:101F18008A1583120313D3005308D4000A128A15B2
:101F2800E4240A128A1583120313A101A10A0130BD
:101F38000A128A158F250A128A1501300A128A1583
:101F480039250A128A1583120313D3005308D500C2
:101F58000130A0008030A1000A128A15DD250A127E
:101F68008A1583120313A101A10A02300A128A15E5
:101F78008F250A128A1583120313540884008313C9
:101F880000080A128A1114260A128A1583120313EA
:101F9800D3005308D6005608A0000030A1000A124A
:101FA8008A15DD250A128A15113083120313A00041
:101FB8008030A1000A128A15DD250A128A158312BB
:101FC800031355088400831300080A128A11142683
:101FD8000A128A1583120313D3005308D600560831
:101FE800A0000030A1000A128A15DD250A128A1500
:081FF800872F0A128A110E283E
:04400E00D720FF3F79
:00000001FF
