:020000040000FA
:060000000A128A110E280D
:10000800FE00030EF4000408F5000A08F6000A12C0
:100018008A113C280A128A11112883134430FD00E2
:100028000230FE002030FF00343084000A128A11AA
:10003800FE210A128A110A128A1148220A128A110A
:10004800FC000A128A1149220A128A11FD00203086
:10005800840034300A128A1140220A128A11F701E8
:10006800F801F901FA01FB0183010A128A11142926
:100078000B1C3F2840288B287C08F2007208FD00E2
:10008800831203130608F2007208FC007D184D283D
:100098004E286B287C1C512852286B287708790237
:1000A800F2007808031C780A7A02F3000030730221
:1000B800323003197202031C622863286B287A08FD
:1000C800F8007908F7000130F20072088807FD1877
:1000D8006E286F288A28FC1C722873288A2826080C
:1000E8007902F2002708031C270A7A02F30000307D
:1000F8007302323003197202031C832884288A2869
:100108007A08A7007908A600013088020B1083122C
:1001180003138C1C9028912898288C103230F907EA
:100128000318FA0A0030FA070A128A110D220A1275
:100138008A110A128A116C210A128A1176088A0019
:1001480075088400740E8300FE0E7E0E090083126B
:100158000313CA01C51FB128B228B928C409C509A3
:10016800C40A0319C50ACA01CA0AC71FBC28BD2880
:10017800C628C609C709C60A0319C70A0130C80034
:100188004808CA06CB01CC01440845040319CD2808
:10019800CE280529C901C90ADC2801300310C40D7D
:1001A800C50DFF3E031DD2280130C8004808C90705
:1001B800C51FDF28E028D12801300310CB0DCC0D56
:1001C800FF3E031DE12845084702031DED284408AA
:1001D8004602031CF028F128F8284408C6024508FE
:1001E800031CC703C7024B1401300310C50CC40C11
:1001F800FF3E031DF9280130C902031D0429052902
:10020800E0284A08031909290A290F29CB09CC092A
:10021800CB0A0319CC0A4C08C5004B08C4000800D7
:1002280001308316031788008901013083160313F0
:100238008500FF30860087018801FF309600831211
:10024800031388018316031381138B170B178B1560
:100258008C143230831203138D00043092000A127A
:100268008A1130220A128A11073083120313C4003C
:100278000030C5000A128A11E6210A128A110030DC
:100288000A128A11CE210A128A1183120313D1008D
:100298005108D20052088400831300080A128A11F8
:1002A800AF210A128A1183120313520884008313A0
:1002B80000080802031C61296529831203138514A9
:1002C800682983120313851043290A128A110E28FC
:1002D8000B1D6F297029AE299D298312031305115F
:1002E80085112408343E840083130008F000530865
:1002F80084008317541C831370088000051501308F
:10030800F0007008FB07AD2983120313051185114E
:100318002508343E840083130008F0005308840045
:100328008317541C83137008800085150130FB0265
:10033800AD297B08F000F1017108003A0319A529DD
:10034800AD297008003A03197129013A031988295F
:10035800AD290B11080083120313D0001030C4001C
:100368000030C5005008CD00CE014D08C6004E082B
:10037800C7000A128A11AB200A128A1183120313CA
:100388004408CF004F08A50050080F39CD004D088C
:10039800A400080083120313C5009F18D429D52987
:1003A800E3294508C400C40DC40D1F084406C33919
:1003B80044069F00DF290000831203139F14450899
:1003C800283E0800831203134408D3004508D400CC
:1003D80083160313811281110108F839013881004D
:1003E80006308312031381000B1508007E088A006B
:1003F8007F0882000A128A11FA210A128A118000E3
:10040800840A04087D0603190034FF0A0319FE0A4A
:10041800FE29831203130C1F122A132A1F2A1E08EF
:10042800F0001F0CF100710C0F39283E8400700891
:10043800831380000C1308003F3406345B344F34B8
:1004480066346D347D3407347F346F3477347C34CC
:1004580058345E3479347134831203131F083F39DA
:1004680040389F00831603130C179F139F121F1207
:10047800831203131F14080064008001840A040611
:0C048800031900340406412AFF34FF343D
:04400E00D420FF3F7C
:00000001FF
