:020000040000FA
:060000000A128A110E280D
:10000800FE00030EF4000408F5000A08F6000A12C0
:100018008A113C280A128A11112883134230FD00E4
:100028000130FE001C30FF00323084000A128A11B1
:10003800FA200A128A110A128A1144210A128A1114
:10004800FC000A128A1145210A128A11FD0020308B
:10005800840032300A128A113C210A128A11F701EF
:10006800F801F901FA01FB0183010A128A11A62895
:100078000B1C3F2840288B287C08F2007208FD00E2
:10008800831203130608F2007208FC007D184D283D
:100098004E286B287C1C512852286B287708790237
:1000A800F2007808031C780A7A02F3000030730221
:1000B800323003197202031C622863286B287A08FD
:1000C800F8007908F7000130F20072088807FD1877
:1000D8006E286F288A28FC1C722873288A2824080E
:1000E8007902F2002508031C250A7A02F300003081
:1000F8007302323003197202031C832884288A2869
:100108007A08A5007908A400013088020B10831230
:1001180003138C1C9028912898288C103230F907EA
:100128000318FA0A0030FA070A128A1109210A127A
:100138008A1176088A0075088400740E8300FE0E02
:100148007E0E0900013083160317880089010130EB
:10015800831603138500FF30860087018801FF306E
:1001680096008312031388018316031381138B17D8
:100178000B178B158C143230831203138D00043047
:1001880092000A128A112C210A128A1100300A12CE
:100198008A11DE200A128A1183120313C40044084C
:1001A800C50045088400831300088700CA280A127E
:1001B8008A110E2883120313C3009F18E428E52828
:1001C800F3284308C200C20DC20D1F084206C339F6
:1001D80042069F00EF280000831203139F14430870
:1001E800263E08007E088A007F0882000A128A11CB
:1001F800F6200A128A118000840A04087D06031971
:100208000034FF0A0319FE0AFA28831203130C1F8D
:100218000E290F291B291E08F0001F0CF100710C74
:100228000F39263E84007008831380000C130800E1
:100238003F3406345B344F3466346D347D340734D0
:100248007F346F3477347C3458345E347934713485
:10025800831203131F083F3940389F008316031386
:100268000C179F139F121F12831203131F140800E9
:1002780064008001840A04060319003404063D2939
:04028800FF34FF340C
:04400E00D420FF3F7C
:00000001FF
